{
  "contractName": "Store",
  "abi": [
    {
      "inputs": [
        {
          "internalType": "uint256",
          "name": "_stock",
          "type": "uint256"
        },
        {
          "internalType": "uint256",
          "name": "_price",
          "type": "uint256"
        }
      ],
      "payable": false,
      "stateMutability": "nonpayable",
      "type": "constructor"
    },
    {
      "anonymous": false,
      "inputs": [
        {
          "indexed": true,
          "internalType": "address",
          "name": "_buyer",
          "type": "address"
        },
        {
          "indexed": false,
          "internalType": "uint256",
          "name": "_change",
          "type": "uint256"
        }
      ],
      "name": "ChangeReceipt",
      "type": "event"
    },
    {
      "anonymous": false,
      "inputs": [
        {
          "indexed": true,
          "internalType": "address",
          "name": "_buyer",
          "type": "address"
        },
        {
          "indexed": false,
          "internalType": "uint256",
          "name": "_points",
          "type": "uint256"
        }
      ],
      "name": "NewSale",
      "type": "event"
    },
    {
      "constant": true,
      "inputs": [],
      "name": "owner",
      "outputs": [
        {
          "internalType": "address payable",
          "name": "",
          "type": "address"
        }
      ],
      "payable": false,
      "stateMutability": "view",
      "type": "function"
    },
    {
      "constant": true,
      "inputs": [],
      "name": "price",
      "outputs": [
        {
          "internalType": "uint256",
          "name": "",
          "type": "uint256"
        }
      ],
      "payable": false,
      "stateMutability": "view",
      "type": "function"
    },
    {
      "constant": true,
      "inputs": [],
      "name": "stock",
      "outputs": [
        {
          "internalType": "uint256",
          "name": "",
          "type": "uint256"
        }
      ],
      "payable": false,
      "stateMutability": "view",
      "type": "function"
    },
    {
      "constant": false,
      "inputs": [],
      "name": "buy",
      "outputs": [],
      "payable": true,
      "stateMutability": "payable",
      "type": "function"
    },
    {
      "constant": true,
      "inputs": [],
      "name": "getPoints",
      "outputs": [
        {
          "internalType": "uint256",
          "name": "",
          "type": "uint256"
        }
      ],
      "payable": false,
      "stateMutability": "view",
      "type": "function"
    },
    {
      "constant": true,
      "inputs": [
        {
          "internalType": "address",
          "name": "buyer",
          "type": "address"
        }
      ],
      "name": "getBalance",
      "outputs": [
        {
          "internalType": "uint256",
          "name": "",
          "type": "uint256"
        }
      ],
      "payable": false,
      "stateMutability": "view",
      "type": "function"
    }
  ],
  "bytecode": "0x608060405234801561001057600080fd5b506040516107283803806107288339818101604052604081101561003357600080fd5b810190808051906020019092919080519060200190929190505050336000806101000a81548173ffffffffffffffffffffffffffffffffffffffff021916908373ffffffffffffffffffffffffffffffffffffffff1602179055508160028190555080600181905550505061067b806100ad6000396000f3fe6080604052600436106100555760003560e01c80638da5cb5b1461005a578063a035b1fe146100b1578063a6f2ae3a146100dc578063bdf3c4ae146100e6578063f4b7095b14610111578063f8b2cb4f1461013c575b600080fd5b34801561006657600080fd5b5061006f6101a1565b604051808273ffffffffffffffffffffffffffffffffffffffff1673ffffffffffffffffffffffffffffffffffffffff16815260200191505060405180910390f35b3480156100bd57600080fd5b506100c66101c6565b6040518082815260200191505060405180910390f35b6100e46101cc565b005b3480156100f257600080fd5b506100fb61054d565b6040518082815260200191505060405180910390f35b34801561011d57600080fd5b50610126610553565b6040518082815260200191505060405180910390f35b34801561014857600080fd5b5061018b6004803603602081101561015f57600080fd5b81019080803573ffffffffffffffffffffffffffffffffffffffff1690602001909291905050506105fd565b6040518082815260200191505060405180910390f35b6000809054906101000a900473ffffffffffffffffffffffffffffffffffffffff1681565b60015481565b600060025411610244576040517f08c379a000000000000000000000000000000000000000000000000000000000815260040180806020018281038252601f8152602001807f546865726520617265206e6f2070726f6475637473206176616961626c652e0081525060200191505060405180910390fd5b6001543410156102bc576040517f08c379a000000000000000000000000000000000000000000000000000000000815260040180806020018281038252601c8152602001807f56616c756520646f6573206e6f74206166666f72642070726963652e0000000081525060200191505060405180910390fd5b600060015434816102c957fe5b069050600081111561036b573373ffffffffffffffffffffffffffffffffffffffff166108fc829081150290604051600060405180830381858888f1935050505015801561031b573d6000803e3d6000fd5b503373ffffffffffffffffffffffffffffffffffffffff167f6eb7e4e28139a13c731c913e624226cc586380b2ff676f0d221383f53ce84892826040518082815260200191505060405180910390a25b6000809054906101000a900473ffffffffffffffffffffffffffffffffffffffff1673ffffffffffffffffffffffffffffffffffffffff166108fc8234039081150290604051600060405180830381858888f193505050501580156103d4573d6000803e3d6000fd5b50600060015434816103e257fe5b0490506000600360003373ffffffffffffffffffffffffffffffffffffffff1673ffffffffffffffffffffffffffffffffffffffff1681526020019081526020016000205414156104945760043390806001815401808255809150509060018203906000526020600020016000909192909190916101000a81548173ffffffffffffffffffffffffffffffffffffffff021916908373ffffffffffffffffffffffffffffffffffffffff160217905550505b80600360003373ffffffffffffffffffffffffffffffffffffffff1673ffffffffffffffffffffffffffffffffffffffff168152602001908152602001600020600082825401925050819055503373ffffffffffffffffffffffffffffffffffffffff167f1879c2da3209ffa2a894fe5982d4efad2e3748112706ec81de514fb9e9e6677f826040518082815260200191505060405180910390a28067ffffffffffffffff166002600082825403925050819055505050565b60025481565b6000806000905060008090505b6004805490508110156105f557600360006004838154811061057e57fe5b9060005260206000200160009054906101000a900473ffffffffffffffffffffffffffffffffffffffff1673ffffffffffffffffffffffffffffffffffffffff1673ffffffffffffffffffffffffffffffffffffffff16815260200190815260200160002054820191508080600101915050610560565b508091505090565b6000600360008373ffffffffffffffffffffffffffffffffffffffff1673ffffffffffffffffffffffffffffffffffffffff16815260200190815260200160002054905091905056fea265627a7a7231582004d02e8552fbec04c7ee6dd9a4689c197acb5e5e57995569b0aa445cba79d4e164736f6c63430005100032",
  "source": "pragma solidity ^0.5.10;\n\ncontract Store {\n\t// Owner do contrato\n\t// Detém os direitos do contrato\n\t// Contrato só armazena os valores de maneira temporária; o pagamento irá para o Owner\n\taddress payable public owner;\n\n\t//Variáveis de controle da loja\n\tuint256 public price;\n\tuint256 public stock;\n\n\t//Controle de pontos\n\tmapping(address => uint256) points;\n\taddress[] buyers;\n\n\t//Solidity events give an abstraction on top of the EVM’s logging functionality. Applications can subscribe and listen to these events through the RPC interface of an Ethereum client.\n\n\tevent NewSale(address indexed _buyer, uint256 _points);\n\tevent ChangeReceipt(address indexed _buyer, uint256 _change);\n\n\tconstructor(uint256 _stock, uint256 _price) public {\n\t\towner = msg.sender;\n\t\tstock = _stock;\n\t\tprice = _price;\n\t}\n\n\tfunction buy() payable public {\n\t\trequire(stock > 0, \"There are no products avaiable.\");\n\t\trequire(msg.value >= price, \"Value does not afford price.\");\n\n\t\tuint256 change = msg.value%price;\n\t\tif(change > 0) {\n\t\t\tmsg.sender.transfer(change);\n\t\t\temit ChangeReceipt(msg.sender, change);\n\t\t}\n\n\t\towner.transfer(msg.value-change);\n\n\t\tuint256 reward = msg.value/price;\n\n\t\tif(points[msg.sender] == 0) buyers.push(msg.sender);\n\t\tpoints[msg.sender] += reward;\n\n\t\temit NewSale(msg.sender, reward);\n\n\t\t//Type cast - setar o int do valor, pois o reward é diferente do stock.\n\t\tstock -= uint64(reward);\n\t}\n\n\t//view é um método de leitura, não escreve no contrato. Não gera custos.\n\tfunction getPoints() public\tview returns(uint256) {\n\t\tuint256 total = 0;\n\t\tfor(uint i=0; i<buyers.length; i++) {\n\t\t\ttotal += points[ buyers[i] ];\n\t\t}\n\t\treturn total;\n\t}\n\n\tfunction getBalance(address buyer) public view returns(uint256) {\n\t\treturn points[buyer];\n\t}\n}\n\n\n",
  "sourcePath": "/Users/viniciuschagas/Desktop/cursoBA_DevEth/contracts/Store.sol",
  "compiler": {
    "name": "solc",
    "version": "0.5.16+commit.9c3226ce.Emscripten.clang"
  },
  "schemaVersion": "3.3.4",
  "updatedAt": "2021-04-16T00:12:33.504Z",
  "devdoc": {
    "methods": {}
  },
  "userdoc": {
    "methods": {}
  }
}