{
  "contractName": "TrackingAndPayment",
  "abi": [
    {
      "inputs": [
        {
          "internalType": "address payable",
          "name": "_supplier",
          "type": "address"
        },
        {
          "internalType": "address payable",
          "name": "_factory",
          "type": "address"
        },
        {
          "internalType": "address",
          "name": "_store",
          "type": "address"
        }
      ],
      "payable": false,
      "stateMutability": "nonpayable",
      "type": "constructor"
    },
    {
      "constant": true,
      "inputs": [],
      "name": "currentStep",
      "outputs": [
        {
          "internalType": "enum Tracking.Step",
          "name": "",
          "type": "uint8"
        }
      ],
      "payable": false,
      "stateMutability": "view",
      "type": "function"
    },
    {
      "constant": true,
      "inputs": [],
      "name": "factory",
      "outputs": [
        {
          "internalType": "address payable",
          "name": "",
          "type": "address"
        }
      ],
      "payable": false,
      "stateMutability": "view",
      "type": "function"
    },
    {
      "constant": true,
      "inputs": [],
      "name": "factoryAccept",
      "outputs": [
        {
          "internalType": "bool",
          "name": "",
          "type": "bool"
        }
      ],
      "payable": false,
      "stateMutability": "view",
      "type": "function"
    },
    {
      "constant": true,
      "inputs": [],
      "name": "factoryBalance",
      "outputs": [
        {
          "internalType": "uint256",
          "name": "",
          "type": "uint256"
        }
      ],
      "payable": false,
      "stateMutability": "view",
      "type": "function"
    },
    {
      "constant": true,
      "inputs": [],
      "name": "factoryState",
      "outputs": [
        {
          "internalType": "uint8",
          "name": "",
          "type": "uint8"
        }
      ],
      "payable": false,
      "stateMutability": "view",
      "type": "function"
    },
    {
      "constant": true,
      "inputs": [],
      "name": "factoryToStoreState",
      "outputs": [
        {
          "internalType": "uint8",
          "name": "",
          "type": "uint8"
        }
      ],
      "payable": false,
      "stateMutability": "view",
      "type": "function"
    },
    {
      "constant": true,
      "inputs": [],
      "name": "store",
      "outputs": [
        {
          "internalType": "address",
          "name": "",
          "type": "address"
        }
      ],
      "payable": false,
      "stateMutability": "view",
      "type": "function"
    },
    {
      "constant": true,
      "inputs": [],
      "name": "storeAccept",
      "outputs": [
        {
          "internalType": "bool",
          "name": "",
          "type": "bool"
        }
      ],
      "payable": false,
      "stateMutability": "view",
      "type": "function"
    },
    {
      "constant": true,
      "inputs": [],
      "name": "storeVerificationState",
      "outputs": [
        {
          "internalType": "uint8",
          "name": "",
          "type": "uint8"
        }
      ],
      "payable": false,
      "stateMutability": "view",
      "type": "function"
    },
    {
      "constant": true,
      "inputs": [],
      "name": "supplier",
      "outputs": [
        {
          "internalType": "address payable",
          "name": "",
          "type": "address"
        }
      ],
      "payable": false,
      "stateMutability": "view",
      "type": "function"
    },
    {
      "constant": true,
      "inputs": [],
      "name": "supplierAccept",
      "outputs": [
        {
          "internalType": "bool",
          "name": "",
          "type": "bool"
        }
      ],
      "payable": false,
      "stateMutability": "view",
      "type": "function"
    },
    {
      "constant": true,
      "inputs": [],
      "name": "supplierBalance",
      "outputs": [
        {
          "internalType": "uint256",
          "name": "",
          "type": "uint256"
        }
      ],
      "payable": false,
      "stateMutability": "view",
      "type": "function"
    },
    {
      "constant": true,
      "inputs": [],
      "name": "supplierState",
      "outputs": [
        {
          "internalType": "uint8",
          "name": "",
          "type": "uint8"
        }
      ],
      "payable": false,
      "stateMutability": "view",
      "type": "function"
    },
    {
      "constant": true,
      "inputs": [],
      "name": "supplierToFactoryState",
      "outputs": [
        {
          "internalType": "uint8",
          "name": "",
          "type": "uint8"
        }
      ],
      "payable": false,
      "stateMutability": "view",
      "type": "function"
    },
    {
      "constant": false,
      "inputs": [],
      "name": "deposit",
      "outputs": [],
      "payable": true,
      "stateMutability": "payable",
      "type": "function"
    },
    {
      "constant": false,
      "inputs": [],
      "name": "accept",
      "outputs": [],
      "payable": false,
      "stateMutability": "nonpayable",
      "type": "function"
    },
    {
      "constant": false,
      "inputs": [],
      "name": "next",
      "outputs": [],
      "payable": false,
      "stateMutability": "nonpayable",
      "type": "function"
    },
    {
      "constant": false,
      "inputs": [],
      "name": "pay",
      "outputs": [],
      "payable": true,
      "stateMutability": "payable",
      "type": "function"
    }
  ],
  "bytecode": "0x608060405260008060056101000a81548160ff0219169083600481111561002257fe5b021790555034801561003357600080fd5b5060405161145d38038061145d8339818101604052606081101561005657600080fd5b8101908080519060200190929190805190602001909291908051906020019092919050505082828282600060066101000a81548173ffffffffffffffffffffffffffffffffffffffff021916908373ffffffffffffffffffffffffffffffffffffffff16021790555081600160006101000a81548173ffffffffffffffffffffffffffffffffffffffff021916908373ffffffffffffffffffffffffffffffffffffffff16021790555080600260006101000a81548173ffffffffffffffffffffffffffffffffffffffff021916908373ffffffffffffffffffffffffffffffffffffffff16021790555050505082600360006101000a81548173ffffffffffffffffffffffffffffffffffffffff021916908373ffffffffffffffffffffffffffffffffffffffff16021790555081600460006101000a81548173ffffffffffffffffffffffffffffffffffffffff021916908373ffffffffffffffffffffffffffffffffffffffff160217905550505050611285806101d86000396000f3fe6080604052600436106101095760003560e01c8063706cc66011610095578063c45a015511610064578063c45a01551461037a578063d0e30db0146103d1578063dc3f7878146103db578063ec1ec4991461040c578063ecec2cf91461043757610109565b8063706cc66014610292578063975057e7146102c1578063abd872df14610318578063aed4885d1461034957610109565b806336da4468116100dc57806336da4468146101895780633d7df2d1146101e057806343a84c7f146102115780634c8fe526146102425780635bc34f711461025957610109565b80631aa73fe91461010e5780631b9265b8146101395780632852b71c146101435780632e1521901461015a575b600080fd5b34801561011a57600080fd5b50610123610466565b6040518082815260200191505060405180910390f35b61014161046c565b005b34801561014f57600080fd5b506101586105ae565b005b34801561016657600080fd5b5061016f610706565b604051808215151515815260200191505060405180910390f35b34801561019557600080fd5b5061019e610719565b604051808273ffffffffffffffffffffffffffffffffffffffff1673ffffffffffffffffffffffffffffffffffffffff16815260200191505060405180910390f35b3480156101ec57600080fd5b506101f561073f565b604051808260ff1660ff16815260200191505060405180910390f35b34801561021d57600080fd5b50610226610751565b604051808260ff1660ff16815260200191505060405180910390f35b34801561024e57600080fd5b50610257610764565b005b34801561026557600080fd5b5061026e610828565b6040518082600481111561027e57fe5b60ff16815260200191505060405180910390f35b34801561029e57600080fd5b506102a761083b565b604051808215151515815260200191505060405180910390f35b3480156102cd57600080fd5b506102d661084e565b604051808273ffffffffffffffffffffffffffffffffffffffff1673ffffffffffffffffffffffffffffffffffffffff16815260200191505060405180910390f35b34801561032457600080fd5b5061032d610874565b604051808260ff1660ff16815260200191505060405180910390f35b34801561035557600080fd5b5061035e610887565b604051808260ff1660ff16815260200191505060405180910390f35b34801561038657600080fd5b5061038f61089a565b604051808273ffffffffffffffffffffffffffffffffffffffff1673ffffffffffffffffffffffffffffffffffffffff16815260200191505060405180910390f35b6103d96108c0565b005b3480156103e757600080fd5b506103f0610a8e565b604051808260ff1660ff16815260200191505060405180910390f35b34801561041857600080fd5b50610421610aa1565b6040518082815260200191505060405180910390f35b34801561044357600080fd5b5061044c610aa7565b604051808215151515815260200191505060405180910390f35b60065481565b600260ff16600060029054906101000a900460ff1660ff1614801561049357506000600554115b1561050c57600360009054906101000a900473ffffffffffffffffffffffffffffffffffffffff1673ffffffffffffffffffffffffffffffffffffffff166108fc6005549081150290604051600060405180830381858888f19350505050158015610502573d6000803e3d6000fd5b5060006005819055505b600260ff16600060049054906101000a900460ff1660ff1614801561053357506000600654115b156105ac57600460009054906101000a900473ffffffffffffffffffffffffffffffffffffffff1673ffffffffffffffffffffffffffffffffffffffff166108fc6006549081150290604051600060405180830381858888f193505050501580156105a2573d6000803e3d6000fd5b5060006006819055505b565b600360009054906101000a900473ffffffffffffffffffffffffffffffffffffffff1673ffffffffffffffffffffffffffffffffffffffff163373ffffffffffffffffffffffffffffffffffffffff161415610620576001600460146101000a81548160ff0219169083151502179055505b600460009054906101000a900473ffffffffffffffffffffffffffffffffffffffff1673ffffffffffffffffffffffffffffffffffffffff163373ffffffffffffffffffffffffffffffffffffffff161415610692576001600460156101000a81548160ff0219169083151502179055505b600260009054906101000a900473ffffffffffffffffffffffffffffffffffffffff1673ffffffffffffffffffffffffffffffffffffffff163373ffffffffffffffffffffffffffffffffffffffff161415610704576001600460166101000a81548160ff0219169083151502179055505b565b600460149054906101000a900460ff1681565b600360009054906101000a900473ffffffffffffffffffffffffffffffffffffffff1681565b6000809054906101000a900460ff1681565b600060019054906101000a900460ff1681565b600460149054906101000a900460ff16801561078c5750600460159054906101000a900460ff165b80156107a45750600460169054906101000a900460ff165b610816576040517f08c379a00000000000000000000000000000000000000000000000000000000081526004018080602001828103825260208152602001807f416c6c20726f6c6573206d7573742061636365707420746f2070726f6365656481525060200191505060405180910390fd5b61081e610aba565b61082661046c565b565b600060059054906101000a900460ff1681565b600460159054906101000a900460ff1681565b600260009054906101000a900473ffffffffffffffffffffffffffffffffffffffff1681565b600060049054906101000a900460ff1681565b600060039054906101000a900460ff1681565b600460009054906101000a900473ffffffffffffffffffffffffffffffffffffffff1681565b600460009054906101000a900473ffffffffffffffffffffffffffffffffffffffff1673ffffffffffffffffffffffffffffffffffffffff163373ffffffffffffffffffffffffffffffffffffffff1614806109695750600260009054906101000a900473ffffffffffffffffffffffffffffffffffffffff1673ffffffffffffffffffffffffffffffffffffffff163373ffffffffffffffffffffffffffffffffffffffff16145b6109be576040517f08c379a000000000000000000000000000000000000000000000000000000000815260040180806020018281038252603681526020018061121b6036913960400191505060405180910390fd5b600460009054906101000a900473ffffffffffffffffffffffffffffffffffffffff1673ffffffffffffffffffffffffffffffffffffffff163373ffffffffffffffffffffffffffffffffffffffff161415610a2557346005600082825401925050819055505b600260009054906101000a900473ffffffffffffffffffffffffffffffffffffffff1673ffffffffffffffffffffffffffffffffffffffff163373ffffffffffffffffffffffffffffffffffffffff161415610a8c57346006600082825401925050819055505b565b600060029054906101000a900460ff1681565b60055481565b600460169054906101000a900460ff1681565b60006004811115610ac757fe5b600060059054906101000a900460ff166004811115610ae257fe5b1415610c2357600060069054906101000a900473ffffffffffffffffffffffffffffffffffffffff1673ffffffffffffffffffffffffffffffffffffffff163373ffffffffffffffffffffffffffffffffffffffff1614610bab576040517f08c379a00000000000000000000000000000000000000000000000000000000081526004018080602001828103825260108152602001807f55736572206e6f7420616c6c6f7765640000000000000000000000000000000081525060200191505060405180910390fd5b60008081819054906101000a900460ff168092919060010191906101000a81548160ff021916908360ff16021790555050600260ff166000809054906101000a900460ff1660ff161415610c1e576001600060056101000a81548160ff02191690836004811115610c1857fe5b02179055505b611218565b60016004811115610c3057fe5b600060059054906101000a900460ff166004811115610c4b57fe5b1415610d8e57600060069054906101000a900473ffffffffffffffffffffffffffffffffffffffff1673ffffffffffffffffffffffffffffffffffffffff163373ffffffffffffffffffffffffffffffffffffffff1614610d14576040517f08c379a00000000000000000000000000000000000000000000000000000000081526004018080602001828103825260108152602001807f55736572206e6f7420616c6c6f7765640000000000000000000000000000000081525060200191505060405180910390fd5b6000600181819054906101000a900460ff168092919060010191906101000a81548160ff021916908360ff16021790555050600260ff16600060019054906101000a900460ff1660ff161415610d89576002600060056101000a81548160ff02191690836004811115610d8357fe5b02179055505b611218565b60026004811115610d9b57fe5b600060059054906101000a900460ff166004811115610db657fe5b1415610ef957600160009054906101000a900473ffffffffffffffffffffffffffffffffffffffff1673ffffffffffffffffffffffffffffffffffffffff163373ffffffffffffffffffffffffffffffffffffffff1614610e7f576040517f08c379a00000000000000000000000000000000000000000000000000000000081526004018080602001828103825260108152602001807f55736572206e6f7420616c6c6f7765640000000000000000000000000000000081525060200191505060405180910390fd5b6000600281819054906101000a900460ff168092919060010191906101000a81548160ff021916908360ff16021790555050600260ff16600060029054906101000a900460ff1660ff161415610ef4576003600060056101000a81548160ff02191690836004811115610eee57fe5b02179055505b611218565b60036004811115610f0657fe5b600060059054906101000a900460ff166004811115610f2157fe5b141561106457600160009054906101000a900473ffffffffffffffffffffffffffffffffffffffff1673ffffffffffffffffffffffffffffffffffffffff163373ffffffffffffffffffffffffffffffffffffffff1614610fea576040517f08c379a00000000000000000000000000000000000000000000000000000000081526004018080602001828103825260108152602001807f55736572206e6f7420616c6c6f7765640000000000000000000000000000000081525060200191505060405180910390fd5b6000600381819054906101000a900460ff168092919060010191906101000a81548160ff021916908360ff16021790555050600260ff16600060039054906101000a900460ff1660ff16141561105f576004600060056101000a81548160ff0219169083600481111561105957fe5b02179055505b611218565b60048081111561107057fe5b600060059054906101000a900460ff16600481111561108b57fe5b141561121757600260009054906101000a900473ffffffffffffffffffffffffffffffffffffffff1673ffffffffffffffffffffffffffffffffffffffff163373ffffffffffffffffffffffffffffffffffffffff1614611154576040517f08c379a00000000000000000000000000000000000000000000000000000000081526004018080602001828103825260108152602001807f55736572206e6f7420616c6c6f7765640000000000000000000000000000000081525060200191505060405180910390fd5b600260ff16600060049054906101000a900460ff1660ff1614156111e0576040517f08c379a000000000000000000000000000000000000000000000000000000000815260040180806020018281038252601b8152602001807f50726f6365737320697320616c72656164792066696e6973686564000000000081525060200191505060405180910390fd5b6000600481819054906101000a900460ff168092919060010191906101000a81548160ff021916908360ff16021790555050611218565b5b56fe4f6e6c7920666163746f727920616e642073746f7265206163636f756e74732061726520616c6c6f77656420746f206465706f736974a265627a7a723158200114bb5e9eda346ebcba7817e4aee5a47f345513394385d2a9e1038b560dbd7c64736f6c63430005100032",
  "source": "pragma solidity ^0.5.10;\n\nimport './Tracking.sol';\n\n//Rastreamento e pagamento\n// O `is` estende os métodos do Tracking para o Tracking and Payment\ncontract TrackingAndPayment is Tracking {\n\t// Deve-se declarar payable para um endereço poder receber pagamentos\n\taddress payable public supplier;\n\taddress payable public factory;\n\n\t//Aceitação\n\tbool public supplierAccept;\n\tbool public factoryAccept;\n\tbool public storeAccept;\n\n\t//Quanto cada um tem para receber\n\tuint256 public supplierBalance;\n\tuint256 public factoryBalance;\n\n\tconstructor(address payable _supplier, address payable _factory, address _store) Tracking(_supplier, _factory, _store) public {\n\t\tsupplier = _supplier;\n\t\tfactory = _factory;\n\t}\n\n\t//Metodo para depósitos\n\tfunction deposit() payable public {\n\t\trequire(msg.sender == factory || msg.sender == store, \"Only factory and store accounts are allowed to deposit\");\n\n\t\tif(msg.sender == factory) supplierBalance += msg.value;\n\t\tif(msg.sender == store) factoryBalance += msg.value;\n\t}\n\n\tfunction accept() public {\n\t\tif(msg.sender == supplier) supplierAccept = true;\n\t\tif(msg.sender == factory) factoryAccept = true;\n\t\tif(msg.sender == store) storeAccept = true;\n\t}\n\n\tfunction next() public {\n\t\trequire(supplierAccept && factoryAccept && storeAccept, \"All roles must accept to proceed\");\n\n\t\tsuper.next();\n\n\t\tpay();\n\t}\n\n\tfunction pay() payable public {\n\t\tif(factoryState == Finished && supplierBalance > 0) {\n\t\t\tsupplier.transfer(supplierBalance);\n\t\t\tsupplierBalance = 0;\n\t\t}\n\t\tif(storeVerificationState == Finished && factoryBalance > 0) {\n\t\t\tfactory.transfer(factoryBalance);\n\t\t\tfactoryBalance = 0;\n\t\t}\n\t}\n}",
  "sourcePath": "/Users/viniciuschagas/Desktop/cursoBA_DevEth/contracts/TrackingAndPayment.sol",
  "compiler": {
    "name": "solc",
    "version": "0.5.16+commit.9c3226ce.Emscripten.clang"
  },
  "schemaVersion": "3.3.4",
  "updatedAt": "2021-04-15T23:07:59.282Z",
  "networkType": "ethereum",
  "devdoc": {
    "methods": {}
  },
  "userdoc": {
    "methods": {}
  }
}