{
  "contractName": "Tracking",
  "abi": [
    {
      "inputs": [
        {
          "internalType": "address",
          "name": "_supplier",
          "type": "address"
        },
        {
          "internalType": "address",
          "name": "_factory",
          "type": "address"
        },
        {
          "internalType": "address",
          "name": "_store",
          "type": "address"
        }
      ],
      "payable": false,
      "stateMutability": "nonpayable",
      "type": "constructor"
    },
    {
      "constant": true,
      "inputs": [],
      "name": "currentStep",
      "outputs": [
        {
          "internalType": "enum Tracking.Step",
          "name": "",
          "type": "uint8"
        }
      ],
      "payable": false,
      "stateMutability": "view",
      "type": "function"
    },
    {
      "constant": true,
      "inputs": [],
      "name": "factory",
      "outputs": [
        {
          "internalType": "address",
          "name": "",
          "type": "address"
        }
      ],
      "payable": false,
      "stateMutability": "view",
      "type": "function"
    },
    {
      "constant": true,
      "inputs": [],
      "name": "factoryState",
      "outputs": [
        {
          "internalType": "uint8",
          "name": "",
          "type": "uint8"
        }
      ],
      "payable": false,
      "stateMutability": "view",
      "type": "function"
    },
    {
      "constant": true,
      "inputs": [],
      "name": "factoryToStoreState",
      "outputs": [
        {
          "internalType": "uint8",
          "name": "",
          "type": "uint8"
        }
      ],
      "payable": false,
      "stateMutability": "view",
      "type": "function"
    },
    {
      "constant": true,
      "inputs": [],
      "name": "store",
      "outputs": [
        {
          "internalType": "address",
          "name": "",
          "type": "address"
        }
      ],
      "payable": false,
      "stateMutability": "view",
      "type": "function"
    },
    {
      "constant": true,
      "inputs": [],
      "name": "storeVerificationState",
      "outputs": [
        {
          "internalType": "uint8",
          "name": "",
          "type": "uint8"
        }
      ],
      "payable": false,
      "stateMutability": "view",
      "type": "function"
    },
    {
      "constant": true,
      "inputs": [],
      "name": "supplier",
      "outputs": [
        {
          "internalType": "address",
          "name": "",
          "type": "address"
        }
      ],
      "payable": false,
      "stateMutability": "view",
      "type": "function"
    },
    {
      "constant": true,
      "inputs": [],
      "name": "supplierState",
      "outputs": [
        {
          "internalType": "uint8",
          "name": "",
          "type": "uint8"
        }
      ],
      "payable": false,
      "stateMutability": "view",
      "type": "function"
    },
    {
      "constant": true,
      "inputs": [],
      "name": "supplierToFactoryState",
      "outputs": [
        {
          "internalType": "uint8",
          "name": "",
          "type": "uint8"
        }
      ],
      "payable": false,
      "stateMutability": "view",
      "type": "function"
    },
    {
      "constant": false,
      "inputs": [],
      "name": "next",
      "outputs": [],
      "payable": false,
      "stateMutability": "nonpayable",
      "type": "function"
    }
  ],
  "bytecode": "0x608060405260008060056101000a81548160ff0219169083600481111561002257fe5b021790555034801561003357600080fd5b50604051610c33380380610c338339818101604052606081101561005657600080fd5b8101908080519060200190929190805190602001909291908051906020019092919050505082600060066101000a81548173ffffffffffffffffffffffffffffffffffffffff021916908373ffffffffffffffffffffffffffffffffffffffff16021790555081600160006101000a81548173ffffffffffffffffffffffffffffffffffffffff021916908373ffffffffffffffffffffffffffffffffffffffff16021790555080600260006101000a81548173ffffffffffffffffffffffffffffffffffffffff021916908373ffffffffffffffffffffffffffffffffffffffff160217905550505050610ae3806101506000396000f3fe608060405234801561001057600080fd5b506004361061009e5760003560e01c8063975057e711610066578063975057e71461016b578063abd872df146101b5578063aed4885d146101d9578063c45a0155146101fd578063dc3f7878146102475761009e565b806336da4468146100a35780633d7df2d1146100ed57806343a84c7f146101115780634c8fe526146101355780635bc34f711461013f575b600080fd5b6100ab61026b565b604051808273ffffffffffffffffffffffffffffffffffffffff1673ffffffffffffffffffffffffffffffffffffffff16815260200191505060405180910390f35b6100f5610291565b604051808260ff1660ff16815260200191505060405180910390f35b6101196102a3565b604051808260ff1660ff16815260200191505060405180910390f35b61013d6102b6565b005b610147610a16565b6040518082600481111561015757fe5b60ff16815260200191505060405180910390f35b610173610a29565b604051808273ffffffffffffffffffffffffffffffffffffffff1673ffffffffffffffffffffffffffffffffffffffff16815260200191505060405180910390f35b6101bd610a4f565b604051808260ff1660ff16815260200191505060405180910390f35b6101e1610a62565b604051808260ff1660ff16815260200191505060405180910390f35b610205610a75565b604051808273ffffffffffffffffffffffffffffffffffffffff1673ffffffffffffffffffffffffffffffffffffffff16815260200191505060405180910390f35b61024f610a9b565b604051808260ff1660ff16815260200191505060405180910390f35b600060069054906101000a900473ffffffffffffffffffffffffffffffffffffffff1681565b6000809054906101000a900460ff1681565b600060019054906101000a900460ff1681565b600060048111156102c357fe5b600060059054906101000a900460ff1660048111156102de57fe5b141561041f57600060069054906101000a900473ffffffffffffffffffffffffffffffffffffffff1673ffffffffffffffffffffffffffffffffffffffff163373ffffffffffffffffffffffffffffffffffffffff16146103a7576040517f08c379a00000000000000000000000000000000000000000000000000000000081526004018080602001828103825260108152602001807f55736572206e6f7420616c6c6f7765640000000000000000000000000000000081525060200191505060405180910390fd5b60008081819054906101000a900460ff168092919060010191906101000a81548160ff021916908360ff16021790555050600260ff166000809054906101000a900460ff1660ff16141561041a576001600060056101000a81548160ff0219169083600481111561041457fe5b02179055505b610a14565b6001600481111561042c57fe5b600060059054906101000a900460ff16600481111561044757fe5b141561058a57600060069054906101000a900473ffffffffffffffffffffffffffffffffffffffff1673ffffffffffffffffffffffffffffffffffffffff163373ffffffffffffffffffffffffffffffffffffffff1614610510576040517f08c379a00000000000000000000000000000000000000000000000000000000081526004018080602001828103825260108152602001807f55736572206e6f7420616c6c6f7765640000000000000000000000000000000081525060200191505060405180910390fd5b6000600181819054906101000a900460ff168092919060010191906101000a81548160ff021916908360ff16021790555050600260ff16600060019054906101000a900460ff1660ff161415610585576002600060056101000a81548160ff0219169083600481111561057f57fe5b02179055505b610a14565b6002600481111561059757fe5b600060059054906101000a900460ff1660048111156105b257fe5b14156106f557600160009054906101000a900473ffffffffffffffffffffffffffffffffffffffff1673ffffffffffffffffffffffffffffffffffffffff163373ffffffffffffffffffffffffffffffffffffffff161461067b576040517f08c379a00000000000000000000000000000000000000000000000000000000081526004018080602001828103825260108152602001807f55736572206e6f7420616c6c6f7765640000000000000000000000000000000081525060200191505060405180910390fd5b6000600281819054906101000a900460ff168092919060010191906101000a81548160ff021916908360ff16021790555050600260ff16600060029054906101000a900460ff1660ff1614156106f0576003600060056101000a81548160ff021916908360048111156106ea57fe5b02179055505b610a14565b6003600481111561070257fe5b600060059054906101000a900460ff16600481111561071d57fe5b141561086057600160009054906101000a900473ffffffffffffffffffffffffffffffffffffffff1673ffffffffffffffffffffffffffffffffffffffff163373ffffffffffffffffffffffffffffffffffffffff16146107e6576040517f08c379a00000000000000000000000000000000000000000000000000000000081526004018080602001828103825260108152602001807f55736572206e6f7420616c6c6f7765640000000000000000000000000000000081525060200191505060405180910390fd5b6000600381819054906101000a900460ff168092919060010191906101000a81548160ff021916908360ff16021790555050600260ff16600060039054906101000a900460ff1660ff16141561085b576004600060056101000a81548160ff0219169083600481111561085557fe5b02179055505b610a14565b60048081111561086c57fe5b600060059054906101000a900460ff16600481111561088757fe5b1415610a1357600260009054906101000a900473ffffffffffffffffffffffffffffffffffffffff1673ffffffffffffffffffffffffffffffffffffffff163373ffffffffffffffffffffffffffffffffffffffff1614610950576040517f08c379a00000000000000000000000000000000000000000000000000000000081526004018080602001828103825260108152602001807f55736572206e6f7420616c6c6f7765640000000000000000000000000000000081525060200191505060405180910390fd5b600260ff16600060049054906101000a900460ff1660ff1614156109dc576040517f08c379a000000000000000000000000000000000000000000000000000000000815260040180806020018281038252601b8152602001807f50726f6365737320697320616c72656164792066696e6973686564000000000081525060200191505060405180910390fd5b6000600481819054906101000a900460ff168092919060010191906101000a81548160ff021916908360ff16021790555050610a14565b5b565b600060059054906101000a900460ff1681565b600260009054906101000a900473ffffffffffffffffffffffffffffffffffffffff1681565b600060049054906101000a900460ff1681565b600060039054906101000a900460ff1681565b600160009054906101000a900473ffffffffffffffffffffffffffffffffffffffff1681565b600060029054906101000a900460ff168156fea265627a7a723158208a181d367dcc55aeb6453b247352ae768891bbd98f2dda97e113fccd66c06a9164736f6c63430005100032",
  "source": "pragma solidity ^0.5.10;\n\ncontract Tracking {\n\n\tenum Step { Supplier, SupplierToFactory, Factory, FactoryToStore, StoreVerification}\n\n\t//State of each step\n\t//Unsigned Integer - no solidity não temos sinais negativos\n\t//int8....int256 - vai afetar o consumo de hardware que afeta o Gas\n\tuint8 constant Waiting = 0;\n\tuint8 constant Running = 1;\n\tuint8 constant Finished = 2;\n\n\t//Steps\n\t//Etapas da cadeia de valor\n\t// Supplier -> Factory -> Store\n\t//Não declarar valor inicial é igual a iniciar com valor 0, ou seja, Waiting.\n\tuint8 public supplierState;\n\tuint8 public supplierToFactoryState;\n\tuint8 public factoryState;\n\tuint8 public factoryToStoreState;\n\tuint8 public storeVerificationState;\n\n\t//Current Step\n\t// Will change over time\n\tStep public currentStep = Step.Supplier;\n\n\t//Roles\n\t//address - controle de endereços\n\taddress public supplier;\n\taddress public factory;\n\taddress public store;\n\n\t//Contract creation\n\tconstructor(address _supplier, address _factory, address _store) public {\n\t\tsupplier = _supplier;\n\t\tfactory = _factory;\n\t\tstore = _store;\n\t}\n\n\t//public é um modificador, para controlar acesso.\n\tfunction next() public {\n \t  if (currentStep == Step.Supplier) {\n \t  \tif(msg.sender != supplier) revert(\"User not allowed\");\n \t  \tsupplierState++;\n \t    if (supplierState == Finished) {\n \t    \tcurrentStep = Step.SupplierToFactory;\n \t    }\n \t    return;\n \t  }\n \t  if (currentStep == Step.SupplierToFactory) {\n \t  \tif(msg.sender != supplier) revert(\"User not allowed\");\n \t  \tsupplierToFactoryState++;\n \t  \tif (supplierToFactoryState == Finished) {\n \t  \t\tcurrentStep = Step.Factory;\n \t  \t}\n \t  \treturn;\n \t  }\n \t   if (currentStep == Step.Factory) {\n \t  \tif(msg.sender != factory) revert(\"User not allowed\");\n \t  \tfactoryState++;\n \t  \tif (factoryState == Finished) {\n \t  \t\tcurrentStep = Step.FactoryToStore;\n \t  \t}\n \t  \treturn;\n \t  }\n \t   if (currentStep == Step.FactoryToStore) {\n \t  \tif(msg.sender != factory) revert(\"User not allowed\");\n \t  \tfactoryToStoreState++;\n \t  \tif (factoryToStoreState == Finished) {\n \t  \t\tcurrentStep = Step.StoreVerification;\n \t  \t}\n \t  \treturn;\n \t  }\n \t   if (currentStep == Step.StoreVerification) {\n \t  \tif(msg.sender != store) revert(\"User not allowed\");\n \t  \tif (storeVerificationState == Finished) {\n \t  \t\t//Revert é uma forma de encerrar o código e lançar um erro para o usuário\n \t  \t\trevert(\"Process is already finished\");\n \t  \t}\n \t  \tstoreVerificationState++;\n \t  \treturn;\n \t  }\n\t}\n}",
  "sourcePath": "/Users/viniciuschagas/Desktop/cursoBA_DevEth/contracts/Tracking.sol",
  "compiler": {
    "name": "solc",
    "version": "0.5.16+commit.9c3226ce.Emscripten.clang"
  },
  "schemaVersion": "3.3.4",
  "updatedAt": "2021-04-14T20:30:06.201Z",
  "networkType": "ethereum",
  "devdoc": {
    "methods": {}
  },
  "userdoc": {
    "methods": {}
  }
}