{
  "contractName": "Tracking",
  "abi": [
    {
      "constant": true,
      "inputs": [],
      "name": "currentStep",
      "outputs": [
        {
          "internalType": "enum Tracking.Step",
          "name": "",
          "type": "uint8"
        }
      ],
      "payable": false,
      "stateMutability": "view",
      "type": "function"
    },
    {
      "constant": true,
      "inputs": [],
      "name": "factoryState",
      "outputs": [
        {
          "internalType": "uint8",
          "name": "",
          "type": "uint8"
        }
      ],
      "payable": false,
      "stateMutability": "view",
      "type": "function"
    },
    {
      "constant": true,
      "inputs": [],
      "name": "factoryToStoreState",
      "outputs": [
        {
          "internalType": "uint8",
          "name": "",
          "type": "uint8"
        }
      ],
      "payable": false,
      "stateMutability": "view",
      "type": "function"
    },
    {
      "constant": true,
      "inputs": [],
      "name": "supplierState",
      "outputs": [
        {
          "internalType": "uint8",
          "name": "",
          "type": "uint8"
        }
      ],
      "payable": false,
      "stateMutability": "view",
      "type": "function"
    },
    {
      "constant": true,
      "inputs": [],
      "name": "supplierToFactoryState",
      "outputs": [
        {
          "internalType": "uint8",
          "name": "",
          "type": "uint8"
        }
      ],
      "payable": false,
      "stateMutability": "view",
      "type": "function"
    },
    {
      "constant": false,
      "inputs": [],
      "name": "next",
      "outputs": [],
      "payable": false,
      "stateMutability": "nonpayable",
      "type": "function"
    }
  ],
  "bytecode": "0x608060405260008060046101000a81548160ff0219169083600381111561002257fe5b021790555034801561003357600080fd5b506104a9806100436000396000f3fe608060405234801561001057600080fd5b50600436106100625760003560e01c80633d7df2d11461006757806343a84c7f1461008b5780634c8fe526146100af5780635bc34f71146100b9578063aed4885d146100e5578063dc3f787814610109575b600080fd5b61006f61012d565b604051808260ff1660ff16815260200191505060405180910390f35b61009361013f565b604051808260ff1660ff16815260200191505060405180910390f35b6100b7610152565b005b6100c161043b565b604051808260038111156100d157fe5b60ff16815260200191505060405180910390f35b6100ed61044e565b604051808260ff1660ff16815260200191505060405180910390f35b610111610461565b604051808260ff1660ff16815260200191505060405180910390f35b6000809054906101000a900460ff1681565b600060019054906101000a900460ff1681565b6000600381111561015f57fe5b600060049054906101000a900460ff16600381111561017a57fe5b14156101f85760008081819054906101000a900460ff168092919060010191906101000a81548160ff021916908360ff16021790555050600260ff166000809054906101000a900460ff1660ff1614156101f3576001600060046101000a81548160ff021916908360038111156101ed57fe5b02179055505b610439565b6001600381111561020557fe5b600060049054906101000a900460ff16600381111561022057fe5b14156102a0576000600181819054906101000a900460ff168092919060010191906101000a81548160ff021916908360ff16021790555050600260ff16600060019054906101000a900460ff1660ff16141561029b576002600060046101000a81548160ff0219169083600381111561029557fe5b02179055505b610439565b600260038111156102ad57fe5b600060049054906101000a900460ff1660038111156102c857fe5b1415610348576000600281819054906101000a900460ff168092919060010191906101000a81548160ff021916908360ff16021790555050600260ff16600060029054906101000a900460ff1660ff161415610343576003600060046101000a81548160ff0219169083600381111561033d57fe5b02179055505b610439565b60038081111561035457fe5b600060049054906101000a900460ff16600381111561036f57fe5b141561043857600260ff16600060039054906101000a900460ff1660ff161415610401576040517f08c379a000000000000000000000000000000000000000000000000000000000815260040180806020018281038252601b8152602001807f50726f6365737320697320616c72656164792066696e6973686564000000000081525060200191505060405180910390fd5b6000600381819054906101000a900460ff168092919060010191906101000a81548160ff021916908360ff16021790555050610439565b5b565b600060049054906101000a900460ff1681565b600060039054906101000a900460ff1681565b600060029054906101000a900460ff168156fea265627a7a7231582052bdf82bf5d1c985993be96e3d9f9516355019c13bbe922b8fb21a4cf2c995fd64736f6c63430005100032",
  "source": "pragma solidity ^0.5.10;\n\ncontract Tracking {\n\n\tenum Step { Supplier, SupplierToFactory, Factory, FactoryToStore }\n\n\t//State of each step\n\t//Unsigned Integer - no solidity não temos sinais negativos\n\t//int8....int256 - vai afetar o consumo de hardware que afeta o Gas\n\tuint8 constant Waiting = 0;\n\tuint8 constant Running = 1;\n\tuint8 constant Finished = 2;\n\n\t//Steps\n\t//Etapas da cadeia de valor\n\t// Supplier -> Factory -> Store\n\t//Não declarar valor inicial é igual a iniciar com valor 0, ou seja, Waiting.\n\tuint8 public supplierState;\n\tuint8 public supplierToFactoryState;\n\tuint8 public factoryState;\n\tuint8 public factoryToStoreState;\n\n\t//Current Step\n\t// Will change over time\n\tStep public currentStep = Step.Supplier;\n\n\t//public é um modificador, para controlar acesso.\n\tfunction next() public {\n \t  if (currentStep == Step.Supplier) {\n \t  \tsupplierState++;\n \t    if (supplierState == Finished) {\n \t    \tcurrentStep = Step.SupplierToFactory;\n \t    }\n \t    return;\n \t  }\n \t  if (currentStep == Step.SupplierToFactory) {\n \t  \tsupplierToFactoryState++;\n \t  \tif (supplierToFactoryState == Finished) {\n \t  \t\tcurrentStep = Step.Factory;\n \t  \t}\n \t  \treturn;\n \t  }\n \t   if (currentStep == Step.Factory) {\n \t  \tfactoryState++;\n \t  \tif (factoryState == Finished) {\n \t  \t\tcurrentStep = Step.FactoryToStore;\n \t  \t}\n \t  \treturn;\n \t  }\n \t   if (currentStep == Step.FactoryToStore) {\n \t  \tif (factoryToStoreState == Finished) {\n \t  \t\t//Revert é uma forma de encerrar o código e lançar um erro para o usuário\n \t  \t\trevert(\"Process is already finished\");\n \t  \t}\n \t  \tfactoryToStoreState++;\n \t  \treturn;\n \t  }\n\t}\n}",
  "sourcePath": "/Users/viniciuschagas/Desktop/cursoBA_DevEth/contracts/Tracking.sol",
  "compiler": {
    "name": "solc",
    "version": "0.5.16+commit.9c3226ce.Emscripten.clang"
  },
  "schemaVersion": "3.3.4",
  "updatedAt": "2021-04-14T19:11:10.543Z",
  "networkType": "ethereum",
  "devdoc": {
    "methods": {}
  },
  "userdoc": {
    "methods": {}
  }
}